S01300004B657950616454657374312E7372656302
S11300000C942A000C9447000C9447000C9447006D
S11300100C9447000C9447000C9447000C94470040
S11300200C9447000C9459010C9447000C9447001D
S11300300C9447000C9447000C9447000C94470020
S11300400C9447000C9447000C9447000C94470010
S11300500C94470011241FBECFE5D8E0DEBFCDBF0E
S113006010E0A0E6B0E0E0EDF6E102C005900D92EC
S1130070A63EB107D9F720E0A6EEB0E001C01D927C
S1130080A93EB207E1F70E9470010C94660B0C9430
S1130090000094EA96BF06B607FEFDCF91B1987FA3
S11300A0983011F0903179F483B984E886BF06B6AC
S11300B007FEFDCF91B1987F983139F081E09034FB
S11300C029F480E0089581E0089580E0089584E9AA
S11300D086BF06B604FCFDCF089583B984E886BFC5
S11300E006B607FEFDCF91B1987F81E0983209F4FE
S11300F080E00895CF93DF93C82F8EE40E944900D7
S1130100DC2FD07F8091E60084608D2B0E946D00EF
S113011089EF90E00197F1F700C000008091E600BC
S11301208D2B0E946D0089EF90E00197F1F700C0DC
S1130130000090E1C99FE00111248091E6008460F1
S11301408C2B0E946D0089EF90E00197F1F700C0BD
S113015000008091E6008C2B0E946D0089EF90E0F6
S11301600197F1F700C000000E946700DF91CF9172
S11301700895CF93C82F8EE40E944900C07F8091D8
S1130180E60084608C2B0E946D0089EF90E001975B
S1130190F1F700C000008091E6008C2B0E946D00F6
S11301A089EF90E00197F1F700C000000E9467001A
S11301B0CF9108958093E60080E30E94B90080E324
S11301C00E94B90080E30E94B90080E20E94B90055
S11301D087E893E10197F1F700C0000088E20E94EC
S11301E07A008CE00E947A0086E00E947A0081E026
S11301F00E947A000895CF93DF93C82F8EE40E9463
S11302004900DC2FD07F8091E600D82B8D2F8560AC
S11302100E946D00DA7F8091E6008D2B0E946D00B4
S113022080E1C89F90011124C091E600C560C22BF3
S11302308C2F0E946D002C2F2A7F8091E600822B48
S11302400E946D000E946700DF91CF910895623093
S113025031F0633031F0613029F4805C03C08C5E8E
S113026001C08C5A80680E947A00089581E00E943F
S11302707A0008951F93CF93DF930097B1F0EC01B8
S113028010E007C0FE01E20FF31F80810E94FB0013
S11302901F5F212F30E0FE0101900020E9F7319724
S11302A0EC1BFD0B2E173F0768F3DF91CF911F91D5
S11302B008951F920F920FB60F9211248F939F935C
S11302C08091E7009091E80001969093E800809374
S11302D0E7009F918F910F900FBE0F901F9018957C
S11302E088E00E94DA0060E080E00E9427010E941A
S11302F0360181E08ABB8FEF82BB789494E099BF8A
S11303001FBC8D9A1DBC1CBC23EC39E037BD26BD37
S113031092E89FBD9BE19EBD8ABB80EF8ABB8FECB8
S113032097E00197F1F700C000008FE08BBB8FECE2
S113033097E00197F1F700C000000F2EF1E4EF2ED3
S1130340F12CF02D0CE211E00C94510B8FE097E2AC
S11303500197F1F700C00000C9B38AB380958ABB46
S11303608FEC97E00197F1F700C000008BB3809504
S11303708BBB8FEC97E00197F1F700C0000089B3C5
S1130380C82BC095C13109F00BC10E9436010E94EF
S1130390360160E080E00E94270180E690E00E9440
S11303A03A0161E080E00E94270184EC90E00E9421
S11303B03A019FEF24E33CE0915020403040E1F7C4
S11303C000C0000089B3803F01F38FE097E20197FA
S11303D0F1F700C0000029B39AB390959ABB8FEC53
S11303E097E00197F1F700C000009BB390959BBB89
S11303F08FEC97E00197F1F700C0000089B3822BDE
S1130400873E19F60E94360160E080E00E942701D1
S113041081E990E00E943A0188E690E00E943A0166
S113042061E080E00E94270180E790E00E943A01A9
S113043081E990E00E943A0162E08CEF0E9427017A
S113044088E790E00E943A0181E990E00E943A0135
S113045063E08CEF0E94270183E890E00E943A0158
S11304609AC089B3803FE9F38FE097E20197F1F7EF
S113047000C00000C9B38AB380958ABB8FEC97E0B3
S11304800197F1F700C000008BB380958BBB8FEC14
S113049097E00197F1F700C0000089B3C82BC0951D
S11304A0C13829F50E94360160E080E00E942701EE
S11304B08CE890E00E943A0182E990E00E943A01BF
S11304C0FBBCEABC9FEF29E638E191502040304064
S11304D0E1F700C000001BBD0ABD4FEF89E698E1BB
S11304E0415080409040E1F700C0000059C0C2383C
S11304F0D9F40E94360160E080E00E9427018CE874
S113050090E00E943A0180EA90E00E943A01889AC1
S113051090982FEF37EA41E6215030404040E1F710
S113052000C00000909A3CC0C438D9F40E9436013F
S113053060E080E00E9427018CE890E00E943A018C
S11305408EEA90E00E943A018A9A92988FEF93E2A1
S113055024EF815090402040E1F700C00000929ABF
S11305601FC0C838C1F40E94360160E080E00E94D8
S113057027018CE890E00E943A0183E890E00E9411
S11305803A013FEF43ED80E3315040408040E1F7D2
S113059000C0000005C089B3803F09F462CF64CF76
S11305A0C13209F01CC10E94360160E080E00E9463
S11305B027018CE890E00E943A018CEB90E00E94C5
S11305C03A019FEF27E833E1915020403040E1F7B2
S11305D000C0000089B3803F31F38FE097E20197B8
S11305E0F1F700C0000029B39AB390959ABB8FEC41
S11305F097E00197F1F700C000009BB390959BBB77
S11306008FEC97E00197F1F700C0000089B3822BCB
S1130610873E49F60E94360160E080E00E9427018F
S11306208CE890E00E943A0188E690E00E943A014A
S113063061E080E00E94270180E790E00E943A0197
S113064081E990E00E943A0162E08CEF0E94270168
S113065088E790E00E943A0181E990E00E943A0123
S113066063E08CEF0E94270183E890E00E943A0146
S1130670B1C089B3803FE9F38FE097E20197F1F7C6
S113068000C00000C9B38AB380958ABB8FEC97E0A1
S11306900197F1F700C000008BB380958BBB8FEC02
S11306A097E00197F1F700C0000089B3C82BC0950B
S11306B0C138D9F50E94360160E080E00E9427012C
S11306C08CE890E00E943A0182E990E00E943A01AD
S11306D0FBBCEABC9FEF29E638E191502040304052
S11306E0E1F700C000001BBD0ABD4FEF89E698E1A9
S11306F0415080409040E1F700C00000FBBCEABCE0
S11307002FEF39E648E1215030404040E1F700C086
S113071000001BBD0ABD8FEF99E628E1815090408F
S11307202040E1F700C000005AC0C238D9F40E944A
S1130730360160E080E00E9427018CE890E00E948E
S11307403A0180EA90E00E943A01889A909A3FEF39
S113075043ED80E3315040408040E1F700C00000A9
S113076090983DC0C438E1F40E94360160E080E016
S11307700E9427018CE890E00E943A018EEA90E002
S11307800E943A018A9A92989AEA26EE36E941E062
S11307909150204030404040D9F70000929A1FC049
S11307A0C838C1F40E94360160E080E00E9427014D
S11307B08CE890E00E943A0183E890E00E943A01BC
S11307C08FEF93ED20E3815090402040E1F700C08B
S11307D0000005C089B3803F09F44BCF4DCFC1342D
S11307E009F00BC10E94360160E080E00E942701FD
S11307F08CE890E00E943A018CEB90E00E943A0170
S11308003FEF47E883E1315040408040E1F700C0CA
S1130810000089B3803F31F38FE097E20197F1F74D
S113082000C0000029B39AB390959ABB8FEC97E06F
S11308300197F1F700C000009BB390959BBB8FEC30
S113084097E00197F1F700C0000089B3822B873E3F
S113085049F60E94360160E080E00E9427018CE89E
S113086090E00E943A0188E690E00E943A0161E03B
S113087080E00E94270180E790E00E943A0181E92C
S113088090E00E943A0162E08CEF0E94270188E721
S113089090E00E943A0181E990E00E943A0163E00D
S11308A08CEF0E94270183E890E00E943A01A0C0E7
S11308B089B3803FE9F38FE097E20197F1F700C035
S11308C00000C9B38AB380958ABB8FEC97E0019787
S11308D0F1F700C000008BB380958BBB8FEC97E0E1
S11308E00197F1F700C0000089B3C82BC095C13847
S11308F049F50E94360160E080E00E9427018CE8FF
S113090090E00E943A0182E990E00E943A0183E07B
S113091090E0FBBCEABC2FEF39E648E121503040BF
S11309204040E1F700C000001BBD0ABD2FEF39E6CF
S113093048E1215030404040E1F700C000000197F9
S113094041F75BC0C238D9F40E94360160E080E010
S11309500E9427018CE890E00E943A0180EA90E02E
S11309600E943A01889A90988FEF97EA21E6815085
S113097090402040E1F700C00000909A3EC0C43887
S1130980E9F40E94360160E080E00E9427018CE8CF
S113099090E00E943A018EEA90E00E943A018A9A1D
S11309A092983FEF49E582E692E031504040804022
S11309B09040D9F700C00000929A1FC0C838C1F413
S11309C00E94360160E080E00E9427018CE890E0FC
S11309D00E943A0183E890E00E943A012FEF33ED40
S11309E040E3215030404040E1F700C0000005C022
S11309F089B3803F09F45CCF5ECFC23109F00CC1EA
S1130A000E94360160E080E00E9427018CE890E0BB
S1130A100E943A018CEB90E00E943A018FEF97E834
S1130A2023E1815090402040E1F700C0000089B3E9
S1130A30803F31F38FE097E20197F1F700C00000A7
S1130A4029B39AB390959ABB8FEC97E00197F1F78D
S1130A5000C000009BB390959BBB8FEC97E001977F
S1130A60F1F700C0000089B3822B873E49F60E944B
S1130A70360160E080E00E9427018CE890E00E944B
S1130A803A0188E690E00E943A0161E080E00E9429
S1130A90270180E790E00E943A0181E990E00E94FA
S1130AA03A0162E08CEF0E94270188E790E00E94FF
S1130AB03A0181E990E00E943A0163E08CEF0E94E0
S1130AC0270183E890E00E943A01A1C089B3803FE6
S1130AD0E9F38FE097E20197F1F700C00000C9B392
S1130AE08AB380958ABB8FEC97E00197F1F700C039
S1130AF000008BB380958BBB8FEC97E00197F1F7E7
S1130B0000C0000089B3C82BC095C13849F50E94C4
S1130B10360160E080E00E9427018CE890E00E94AA
S1130B203A0182E990E00E943A0184E090E0FBBC43
S1130B30EABC2FEF39E648E1215030404040E1F76C
S1130B4000C000001BBD0ABD2FEF39E648E121506B
S1130B5030404040E1F700C00000019741F75CC01D
S1130B60C238D9F40E94360160E080E00E94270177
S1130B708CE890E00E943A0180EA90E00E943A01F9
S1130B80889A90988FEF97EA21E681509040204010
S1130B90E1F700C00000909A3FC0C438F1F40E940D
S1130BA0360160E080E00E9427018CE890E00E941A
S1130BB03A018EEA90E00E943A018A9A929834E5CA
S1130BC04DEC8DE293E03150404080409040D9F7A5
S1130BD000C000C00000929A1FC0C838C1F40E942F
S1130BE0360160E080E00E9427018CE890E00E94DA
S1130BF03A0183E890E00E943A012FEF33ED40E39D
S1130C00215030404040E1F700C0000005C089B3E6
S1130C10803F09F45BCF5DCFC23209F00AC10E9464
S1130C20360160E080E00E9427018CE890E00E9499
S1130C303A018CEB90E00E943A018FEF97E823E1B0
S1130C40815090402040E1F700C0000089B3803F0C
S1130C5031F38FE097E20197F1F700C0000029B368
S1130C609AB390959ABB8FEC97E00197F1F700C087
S1130C7000009BB390959BBB8FEC97E00197F1F735
S1130C8000C0000089B3822B873E49F60E943601DA
S1130C9060E080E00E9427018CE890E00E943A0125
S1130CA088E690E00E943A0161E080E00E9427011A
S1130CB080E790E00E943A0181E990E00E943A01C5
S1130CC062E08CEF0E94270188E790E00E943A01DD
S1130CD081E990E00E943A0163E08CEF0E942701D1
S1130CE083E890E00E943A019FC089B3803FE9F312
S1130CF08FE097E20197F1F700C00000C9B38AB30F
S1130D0080958ABB8FEC97E00197F1F700C0000053
S1130D108BB380958BBB8FEC97E00197F1F700C004
S1130D20000089B3C82BC095C13849F50E9436012B
S1130D3060E080E00E9427018CE890E00E943A0184
S1130D4082E990E00E943A0185E090E0FBBCEABCB5
S1130D502FEF39E648E1215030404040E1F700C030
S1130D6000001BBD0ABD2FEF39E648E12150304099
S1130D704040E1F700C00000019741F75AC0C23873
S1130D80D9F40E94360160E080E00E9427018CE8DB
S1130D9090E00E943A0180EA90E00E943A01889A29
S1130DA090988FEF97EA21E6815090402040E1F738
S1130DB000C00000909A3DC0C438E1F40E9436019E
S1130DC060E080E00E9427018CE890E00E943A01F4
S1130DD08EEA90E00E943A018A9A92983AEA40E4B4
S1130DE089EF93E03150404080409040D9F70000B3
S1130DF0929A1FC0C838C1F40E94360160E080E0B6
S1130E000E9427018CE890E00E943A0183E890E078
S1130E100E943A012FEF33ED40E32150304040402F
S1130E20E1F700C0000005C089B3803F09F45DCF3D
S1130E305FCFC23409F00BC10E94360160E080E04C
S1130E400E9427018CE890E00E943A018CEB90E02C
S1130E500E943A018FEF97E823E1815090402040AF
S1130E60E1F700C0000089B3803F31F38FE097E2DF
S1130E700197F1F700C0000029B39AB390959ABB8B
S1130E808FEC97E00197F1F700C000009BB39095B9
S1130E909BBB8FEC97E00197F1F700C0000089B38A
S1130EA0822B873E49F60E94360160E080E00E9472
S1130EB027018CE890E00E943A0188E690E00E94C5
S1130EC03A0161E080E00E94270180E790E00E94FF
S1130ED03A0181E990E00E943A0162E08CEF0E94BD
S1130EE0270188E790E00E943A0181E990E00E949E
S1130EF03A0163E08CEF0E94270183E890E00E94AE
S1130F003A01A0C089B3803FE9F38FE097E20197EB
S1130F10F1F700C00000C9B38AB380958ABB8FEC97
S1130F2097E00197F1F700C000008BB380958BBB6D
S1130F308FEC97E00197F1F700C0000089B3C82B4C
S1130F40C095C13849F50E94360160E080E00E94F6
S1130F5027018CE890E00E943A0182E990E00E9427
S1130F603A0186E090E0FBBCEABC2FEF39E648E1A9
S1130F70215030404040E1F700C000001BBD0ABDD5
S1130F802FEF39E648E1215030404040E1F700C0FE
S1130F900000019741F75BC0C238D9F40E943601C2
S1130FA060E080E00E9427018CE890E00E943A0112
S1130FB080EA90E00E943A01889A90988FEF97EA2D
S1130FC021E6815090402040E1F700C00000909A53
S1130FD03EC0C438E9F40E94360160E080E00E941B
S1130FE027018CE890E00E943A018EEA90E00E948A
S1130FF03A018A9A92983FEF43EB84EC94E03150A3
S1131000404080409040D9F700C00000929A1FC031
S1131010C838C1F40E94360160E080E00E942701D4
S11310208CE890E00E943A0183E890E00E943A0143
S11310302FEF33ED40E3215030404040E1F700C052
S1131040000005C089B3803F09F45CCF5ECFC43192
S113105009F00CC10E94360160E080E00E94270183
S11310608CE890E00E943A018CEB90E00E943A01F7
S11310708FEF97E823E1815090402040E1F700C0D2
S1131080000089B3803F31F38FE097E20197F1F7D5
S113109000C0000029B39AB390959ABB8FEC97E0F7
S11310A00197F1F700C000009BB390959BBB8FECB8
S11310B097E00197F1F700C0000089B3822B873EC7
S11310C049F60E94360160E080E00E9427018CE826
S11310D090E00E943A0188E690E00E943A0161E0C3
S11310E080E00E94270180E790E00E943A0181E9B4
S11310F090E00E943A0162E08CEF0E94270188E7A9
S113110090E00E943A0181E990E00E943A0163E094
S11311108CEF0E94270183E890E00E943A01A1C06D
S113112089B3803FE9F38FE097E20197F1F700C0BC
S11311300000C9B38AB380958ABB8FEC97E001970E
S1131140F1F700C000008BB380958BBB8FEC97E068
S11311500197F1F700C0000089B3C82BC095C138CE
S113116049F50E94360160E080E00E9427018CE886
S113117090E00E943A0182E990E00E943A0187E0FF
S113118090E0FBBCEABC2FEF39E648E12150304047
S11311904040E1F700C000001BBD0ABD2FEF39E657
S11311A048E1215030404040E1F700C00000019781
S11311B041F75CC0C238D9F40E94360160E080E097
S11311C00E9427018CE890E00E943A0180EA90E0B6
S11311D00E943A01889A90988FEF97EA21E681500D
S11311E090402040E1F700C00000909A3FC0C4380E
S11311F0F1F40E94360160E080E00E9427018CE84F
S113120090E00E943A018EEA90E00E943A018A9AA4
S1131210929834E547E280E995E0315040408040BF
S11312209040D9F700C000C00000929A1FC0C8388F
S1131230C1F40E94360160E080E00E9427018CE83E
S113124090E00E943A0183E890E00E943A012FEF77
S113125033ED40E3215030404040E1F700C000004E
S113126005C089B3803F09F45BCF5DCFC43209F078
S11312700AC10E94360160E080E00E9427018CE8E8
S113128090E00E943A018CEB90E00E943A018FEFCB
S113129097E823E1815090402040E1F700C000002E
S11312A089B3803F31F38FE097E20197F1F700C0F3
S11312B0000029B39AB390959ABB8FEC97E00197FD
S11312C0F1F700C000009BB390959BBB8FEC97E0B7
S11312D00197F1F700C0000089B3822B873E49F6DD
S11312E00E94360160E080E00E9427018CE890E0D3
S11312F00E943A0188E690E00E943A0161E080E0B1
S11313000E94270180E790E00E943A0181E990E081
S11313100E943A0162E08CEF0E94270188E790E086
S11313200E943A0181E990E00E943A0163E08CEF67
S11313300E94270183E890E00E943A019FC089B38C
S1131340803FE9F38FE097E20197F1F700C00000D6
S1131350C9B38AB380958ABB8FEC97E00197F1F704
S113136000C000008BB380958BBB8FEC97E0019796
S1131370F1F700C0000089B3C82BC095C13849F506
S11313800E94360160E080E00E9427018CE890E032
S11313900E943A0182E990E00E943A0188E090E0DC
S11313A0FBBCEABC2FEF39E648E121503040404015
S11313B0E1F700C000001BBD0ABD2FEF39E648E18C
S11313C0215030404040E1F700C00000019741F750
S11313D05AC0C238D9F40E94360160E080E00E940D
S11313E027018CE890E00E943A0180EA90E00E9494
S11313F03A01889A90988FEF97EA21E681509040BD
S11314002040E1F700C00000909A3DC0C438E1F4E8
S11314100E94360160E080E00E9427018CE890E0A1
S11314200E943A018EEA90E00E943A018A9A9298C8
S11314303AEA4AE98BE596E03150404080409040DA
S1131440D9F70000929A1FC0C838C1F40E9436012F
S113145060E080E00E9427018CE890E00E943A015D
S113146083E890E00E943A012FEF33ED40E32150EE
S113147030404040E1F700C0000005C089B3803F20
S113148009F45DCF5FCFC43409F00BC10E9436016B
S113149060E080E00E9427018CE890E00E943A011D
S11314A08CEB90E00E943A018FEF97E823E18150A2
S11314B090402040E1F700C0000089B3803F31F341
S11314C08FE097E20197F1F700C0000029B39AB3C7
S11314D090959ABB8FEC97E00197F1F700C000005C
S11314E09BB390959BBB8FEC97E00197F1F700C0FD
S11314F0000089B3822B873E49F60E94360160E0E2
S113150080E00E9427018CE890E00E943A0188E67E
S113151090E00E943A0161E080E00E94270180E7A8
S113152090E00E943A0181E990E00E943A0162E071
S11315308CEF0E94270188E790E00E943A0181E93C
S113154090E00E943A0163E08CEF0E94270183E857
S113155090E00E943A01A0C089B3803FE9F38FE094
S113156097E20197F1F700C0000029B39AB3909570
S11315709ABB8FEC97E00197F1F700C000009BB392
S113158090959BBB8FEC97E00197F1F700C00000AA
S113159089B3822B8095813849F50E94360160E039
S11315A080E00E9427018CE890E00E943A0182E9E1
S11315B090E00E943A0189E090E0FBBCEABC2FEF86
S11315C039E648E1215030404040E1F700C00000D6
S11315D01BBD0ABD2FEF39E648E1215030404040A1
S11315E0E1F700C00000019741F75BC08238D9F4ED
S11315F00E94360160E080E00E9427018CE890E0C0
S11316000E943A0180EA90E00E943A01889A9098F8
S11316108FEF97EA21E6815090402040E1F700C027
S11316200000909A3EC08438E9F40E94360160E0DC
S113163080E00E9427018CE890E00E943A018EEA43
S113164090E00E943A018A9A92983FEF4DE087E237
S113165097E03150404080409040D9F700C00000EE
S1131660929A1FC08838C1F40E94360160E080E07D
S11316700E9427018CE890E00E943A0183E890E000
S11316800E943A012FEF33ED40E3215030404040B7
S1131690E1F700C0000005C089B3803F09F45CCFC6
S11316A05ECF60E080E00E9427018EEC90E00E9413
S11316B03A0161E080E00E9427018BED90E00E94F6
S11316C03A0189B3803F69F30C94A601F894FFCFE3
S11316D05072657373202A00412E436F696E730044
S11316E0422E576174657200432E436861726769C4
S11316F06E6700442E446F6E6174650020202020C4
S11317002000436F6C6C65637420636F696E7300B3
S1131710436F6C6C65637420776174657200436811
S113172061726765206465766963650050726573EC
S113173073202A207768656E20646F6E6500456E9D
S1131740746572206E756D626572006F6620626FDB
S109175074746C65730063
S9030000FC
