:100000000C942A000C9447000C9447000C94470071
:100010000C9447000C9447000C9447000C94470044
:100020000C9447000C9461000C9447000C9447001A
:100030000C9447000C9447000C9447000C94470024
:100040000C9447000C9447000C9447000C94470014
:100050000C94470011241FBECFE5D8E0DEBFCDBF12
:1000600010E0A0E6B0E0E6EDF5E002C005900D92EC
:10007000A43DB107D9F721E0A4EDB0E001C01D9285
:10008000AC36B207E1F70E94E7000C94E9020C9449
:10009000000010BC83E389B98AB188618AB980B550
:1000A000866880BD08955D9BFECF8CB98FEC97E08C
:1000B0000197F1F700C0000008955F9BFECF8CB15F
:1000C00008951F920F920FB60F9211248F939F9352
:1000D0008091D4009091D50001969093D5008093A3
:1000E000D4009F918F910F900FBE0F901F90189585
:1000F000CF93DF938091CF00882339F0C0EDD0E01B
:100100000E94530089918111FBCF2FEF80E792E08D
:10011000215080409040E1F700C000008091C40071
:10012000882339F0C5ECD0E00E94530089918111F9
:10013000FBCF2FEF80E792E0215080409040E1F725
:1001400000C000008091BB00882339F0CCEBD0E0E8
:100150000E94530089918111FBCF2FEF80E792E03D
:10016000215080409040E1F700C000008091AC0039
:10017000882339F0CDEAD0E00E94530089918111A3
:10018000FBCF8DE00E9453002FEF80E792E02150DB
:1001900080409040E1F700C000008091600088231B
:1001A00039F0C1E6D0E00E94530089918111FBCF64
:1001B0008AE10E9453002FEF80E792E021508040B7
:1001C0009040E1F700C00000DF91CF9108950E94B8
:1001D000490080919E00882381F0CFE9D0E00E9401
:1001E00053002FE788E391E0215080409040E1F7F1
:1001F00000C0000089918111F2CF80919200882384
:1002000009F4AEC0C3E9D0E00E9453008991811186
:10021000FBCFA6C00E945D0089930C171D07D1F784
:10022000E6E0F1E0AEE4B1E08EE091E021912D93C3
:100230008E179F07D9F7EFE0F1E0ADE5B1E088E177
:1002400091E021912D93E817F907D9F781E08ABB56
:1002500080E482BB789484E089BF1FBC11BA83E03C
:1002600087BB949801E4D0E2C4E011E06894FF24D5
:10027000F1F8D89A2AE12A95F1F700C0D8981DBC68
:100280001CBC0EBDD8BFC8BF08B605FEFDCF1DBC47
:100290001CBC1EBDD8BFC8BF1092D5001092D400A0
:1002A00008B605FEFDCF66B577B580E090E00E9408
:1002B0002E0229E23CE349EE53E40E94BA0120E019
:1002C00030E040E251E40E94B501181614F1F8BA8A
:1002D0008FEF91E12AE7815090402040E1F700C084
:1002E00000006EE471E080E690E00E94DE026DE5C1
:1002F00071E080E690E00E94DE020E9478008FEFBD
:1003000091E12AE7815090402040E1F700C00000D1
:1003100001C018BA849B02C018BAABCF18BB8FEFCC
:1003200091E12AE7815090402040E1F700C00000B1
:100330006EE471E080E690E00E94DE026DE571E01F
:1003400080E690E00E94DE020E9478008FEF91E14B
:100350002AE7815090402040E1F700C0000089CF9B
:10036000C6EDD0E00AE111E055CF0E94690208F421
:1003700081E008950E94CE010C94A4020E949D0287
:1003800058F00E94960240F029F45F3F29F00C9447
:100390008D0251110C94D8020C9493020E94B50264
:1003A00068F39923B1F3552391F3951B550BBB27A4
:1003B000AA2762177307840738F09F5F5F4F220FE9
:1003C000331F441FAA1FA9F335D00E2E3AF0E0E8E0
:1003D00032D091505040E695001CCAF72BD0FE2F2A
:1003E00029D0660F771F881FBB1F261737074807BE
:1003F000AB07B0E809F0BB0B802DBF01FF27935876
:100400005F4F3AF09E3F510578F00C948D020C94AA
:10041000D8025F3FE4F3983ED4F3869577956795CD
:10042000B795F7959F5FC9F7880F911D96958795AA
:1004300097F90895E1E0660F771F881FBB1F6217C9
:1004400073078407BA0720F0621B730B840BBA0B87
:10045000EE1F88F7E0950895E89409C097FB3EF4F5
:1004600090958095709561957F4F8F4F9F4F992301
:10047000A9F0F92F96E9BB279395F695879577957F
:100480006795B795F111F8CFFAF4BB0F11F460FF3F
:100490001BC06F5F7F4F8F4F9F4F16C0882311F097
:1004A00096E911C0772321F09EE8872F762F05C0AB
:1004B000662371F096E8862F70E060E02AF09A9546
:1004C000660F771F881FDAF7880F9695879597F93B
:1004D0000895990F0008550FAA0BE0E8FEEF1616D5
:1004E0001706E807F907C0F012161306E407F50728
:1004F00098F0621B730B840B950B39F40A2661F09C
:10050000232B242B252B21F408950A2609F4A1403E
:10051000A6958FEF811D811D089597F99F6780E84B
:1005200070E060E008959FEF80EC089500240A9445
:100530001616170618060906089500240A941216BE
:100540001306140605060895092E0394000C11F4F1
:10055000882352F0BB0F40F4BF2B11F460FF04C09E
:100560006F5F7F4F8F4F9F4F089557FD9058440FF7
:10057000551F59F05F3F71F04795880F97FB991F02
:1005800061F09F3F79F087950895121613061406BF
:10059000551FF2CF4695F1DF08C01616170618064C
:1005A000991FF1CF86957105610508940895E89427
:1005B000BB2766277727CB0197F90895FB01DC015C
:1005C0000D900020E9F7119701900D920020E1F7BE
:0605D0000895F894FFCF2E
:1005D6005761746572206C6576656C206C6F772048
:1005E6006F722053746F726167652066756C6C203C
:1005F6002E2E2E000000000000000000000000006B
:10060600000041542B43474E53494E460A0041547D
:100616002B43474E535057523D310A00222B393453
:10062600373234323632393232220041542B434D7E
:1006360047533D0041542B434D47463D310A004147
:04064600540A000052
:00000001FF
